:020000040800F2
:10000000A00A00208901000837110008090C000827
:1000100035110008D1020008A111000800000000FD
:100020000000000000000000000000003B1100087C
:10003000D302000800000000391100083D1100083B
:10004000A3010008A3010008A3010008A301000800
:10005000A3010008A3010008A3010008A3010008F0
:10006000A3010008A3010008A3010008A3010008E0
:10007000A3010008A3010008A3010008A3010008D0
:10008000A3010008A3010008A3010008A3010008C0
:10009000A3010008A3010008A3010008A3010008B0
:1000A000A3010008A3010008A3010008A3010008A0
:1000B000A3010008A3010008A3010008A301000890
:1000C000A3010008A3010008A3010008A301000880
:1000D000A3010008A3010008A3010008A301000870
:1000E000A3010008A3010008A301000800F002F822
:1000F00000F03AF80AA090E8000C82448344AAF188
:100100000107DA4501D100F02FF8AFF2090EBAE885
:100110000F0013F0010F18BFFB1A43F0010318473B
:100120005018000070180000103A24BF78C878C139
:10013000FAD8520724BF30C830C144BF04680C60ED
:10014000704700000023002400250026103A28BF35
:1001500078C1FBD8520728BF30C148BF0B60704739
:100160001FB51FBD10B510BD00F058F81146FFF7C0
:10017000F7FF01F068FA00F076F803B4FFF7F2FF3A
:1001800003BC00F07DF8000009488047094800479B
:10019000FEE7FEE7FEE7FEE7FEE7FEE7FEE7FEE737
:1001A000FEE7FEE704480549054A064B7047000094
:1001B0009F110008ED000008A0040020A00A002004
:1001C000A0060020A00600204FF0000200B5134654
:1001D00094469646203922BFA0E80C50A0E80C5067
:1001E000B1F12001BFF4F7AF090728BFA0E80C5018
:1001F00048BF0CC05DF804EB890028BF40F8042B11
:1002000008BF704748BF20F8022B11F0804F18BF7D
:1002100000F8012B7047704770477047754600F033
:100220002BF8AE4605006946534620F00700854688
:1002300018B020B5FFF7B6FFBDE820404FF000062C
:100240004FF000074FF000084FF0000B21F00701BE
:10025000AC46ACE8C009ACE8C009ACE8C009ACE801
:10026000C0098D46704710B50446AFF300802046A4
:10027000BDE81040FFF781BF004870473C040020F4
:1002800001491820ABBEFEE72600020070470000BF
:1002900038B5054600F016F8044600F00DF80246A1
:1002A00004480095002180682346856B0846A847CE
:1002B00038BD00000000002001488068806A0047C7
:1002C0000000002001488068C06A0047000000204C
:1002D000FEE7704770B5044600F004F90546601C5F
:1002E00002D004480078044400F0FCF8401BA0420F
:1002F000FAD370BD600000202DE9F84FDFF8B89107
:10030000002409F1040A0AF1040B23460F270BF11C
:10031000040EC9E00125A5402A40AA427DD1674EBE
:10032000D1F804C0ACEB0608B44532D014DCBCF103
:10033000030F3AD009DCBCF1000F2AD0BCF1010F49
:100340001CD0BCF1020F31D11DE0BCF1110F17D050
:10035000BCF1120F2AD119E0B8F5881F19D006DCBC
:10036000B8F5803F15D0B8F5801F1FD111E0B8F562
:10037000001F0ED0B8F5041F18D10AE0CB6815E0B5
:10038000CB681B1D12E0CB6808330FE0CB680C3341
:100390000CE08B682BB1012B4FF0080303D04561B3
:1003A00004E0042302E0056100E00023FF2A01D8F5
:1003B000064601E000F104064FEA840501D9A5F1E3
:1003C0002005D6F8008007FA05FC28EA0C0803FA95
:1003D00005F548EA0508C6F800804D68ED0062D5CD
:1003E000374DAE6946F00106AE61AD6924F00306F3
:1003F00005F001050095334D06EB050CDCF80850BF
:10040000A607360F07FA06F825EA0805DFF8B880D0
:10041000404503D14FF0000817E044E0DFF8AC801E
:10042000404502D14FF001080FE0DFF8A4804045BD
:1004300002D14FF0020808E0DFF89880404502D171
:100440004FF0030801E04FF0040808FA06F848EA04
:100450000508CCF808804D68D9F80060ED034D46DA
:1004600001D5164300E096432E604D68DAF800602F
:10047000AD03554601D5164300E096432E604D6806
:10048000DBF80060ED025D4601D5164300E09643BF
:100490002E604D68DEF80060AD02754601D516434A
:1004A00000E096432E60641C0D682A46E5407FF408
:1004B00031AFBDE8F88F00000004014000001110CA
:1004C000001002400000014000080140000C014003
:1004D00000100140001401400AB101617047090495
:1004E000FBE70000014880687047000060000020C2
:1004F00002488168027811448160704760000020E2
:10050000074810B5016841F010010160032000F0B8
:1005100067F80F2000F006F800F024F8002010BD66
:100520000020024070B50D4D04464FF47A712878D2
:10053000B1FBF0F00A490968B1FBF0F000F050FBA4
:1005400048B9102C07D200222146501E00F028F88E
:1005500000206C6070BD012070BD000060000020B4
:100560006C0000200C4808B5816941F001018161EF
:10057000816901F001010091C16941F08051C161BF
:10058000C06900F0805000900448416821F0E061AB
:1005900041F00071416008BD0010024000000140C0
:1005A000F0B40E4B1B680C46C3F30223C3F10705DE
:1005B000042D00D90425191D072901D2002300E0CC
:1005C000DB1E012606FA05F1491E214099409E4096
:1005D000761E16403143F0BC00F0E3BD0CED00E0A8
:1005E000064900F0070208684FF6FF03184040EA8A
:1005F0000220034A10430860704700000CED00E041
:100600000000FA052DE9F0470F46050061D0434E82
:10061000306800F00700B84209D2306820F00700C7
:1006200038433060306800F00700B84251D1286884
:100630003B4C810712D5400703D5606840F4E06069
:1006400060602878000703D5606840F460506060FF
:100650006068A96820F0F000084360602878C0074F
:1006600028D06868012810D02168022810D0890796
:1006700000292EDA616821F0030101436160FFF770
:1006800031FF804641F288390DE021688903EFE7A8
:100690008901EDE7FFF726FFA0EB0801494502D9E4
:1006A0000320BDE8F0876068696800F00C00B0EBDB
:1006B000810FEFD1306800F00700B8420BD93068E5
:1006C00020F0070038433060306800F00700B8427F
:1006D00001D00120E5E72878400705D56068E96882
:1006E00020F4E060084360602878000706D5606861
:1006F000296920F4605040EAC100606000F018F8F9
:100700006168084AC1F30311515CC840064908609A
:1007100006480068FFF706FF0020C2E700200240FD
:1007200000100240601900086C00002064000020E6
:1007300012A185B00FC98DE80F0014A0144A0068FB
:1007400004905168134801F00C03042B10D0082BBF
:100750000ED1C1F38343C9031DF803000AD55168C4
:1007600004AAC1F34041515C0A4A5043B0FBF1F086
:1007700005B0704708494843FAE700000203040542
:10078000060708090A0B0C0D0E0F101001020000DD
:100790000010024000127A0000093D002DE9F84FD8
:1007A000040070D02078C04DC00749D06868C0F3FD
:1007B0008100012807D06868C0F38100022809D1B0
:1007C0006868C00306D52868800339D560680028AA
:1007D000E7D035E06068B0F5803F0BD010B1B0F5E0
:1007E000A02F11D0286820F480302860286820F4D9
:1007F000802002E0286840F480302860606890B172
:10080000FFF770FE06460AE0286840F48020286062
:10081000F0E700BFFFF766FE801B642873D82868E6
:100820008003F7D50CE0FFF75DFE064605E000BF4C
:10083000FFF758FE801B6428F0D828688003F7D49F
:1008400020789A4E80074FF001094FF0000839D503
:10085000686810F00C0F07D06868C0F381000228A8
:1008600009D16868C00306D42868800714D52069B8
:10087000012808D110E02069B0B1C6F80090FFF758
:1008800031FE074605E00AE1FFF72CFEC01B0228F7
:10089000C4D828688007F7D52868616920F0F80077
:1008A00040EAC10028600DE0C6F80080FFF71AFE9C
:1008B000074604E0FFF716FEC01B022823D828686D
:1008C0008007F7D4207800072CD57948A169D9B1E1
:1008D000C0F80090FFF706FE074604E0FFF702FEAF
:1008E000C01B02280FD8686A8007F7D571484FF4FB
:1008F000FA510068B0FBF1F0009000BF0098411E73
:100900000091FAD20EE080E0C0F80080FFF7EAFD27
:10091000074604E0FFF7E6FDC01B022875D8686AA9
:100920008007F7D42078400760D5E8690027C00029
:1009300008D4E86940F08050E861E869012700F0D8
:10094000805000905C480168C90513D40168834653
:1009500041F480710160FFF7C5FD824606E000BFEB
:10096000FFF7C0FDA0EB0A0064284ED8DBF80000BA
:10097000C005F5D5E06801280AD008B1052813D0D4
:10098000286A20F001002862286A20F0040002E0B2
:10099000286A40F001002862E06841F2883B98B183
:1009A000FFF7A0FD82460BE0286A40F004002862B1
:1009B000EEE700BFFFF796FDA0EB0A0159455AD8B4
:1009C000286A8007F6D50CE0FFF78CFD824605E02B
:1009D000FFF788FDA0EB0A0159454CD8286A80072B
:1009E000F6D41FB1E86920F08050E861E06988B36F
:1009F0006968C1F38101022944D00228C6F86080E9
:100A000004D0FFF76FFD044638E034E0FFF76AFDDD
:100A1000074604E0FFF766FDC01B02282BD82868B4
:100A20008001F7D4206AB0F5803F05D16868A168DD
:100A300020F4003008436860D4E90801084369687D
:100A400021F4741108436860C6F86090FFF74AFD0E
:100A5000044606E025E000BFFFF744FD001B022826
:100A600009D828688001F7D51BE000BFFFF73AFDE1
:100A7000001B022802D90320BDE8F88F28688001F6
:100A8000F4D40EE00128F7D06868226A00F48031BF
:100A9000914204D1616A00F47010884201D00120B3
:100AA000EAE70020E8E700000010024000004242B0
:100AB000800442426C0000200070004070B50400C9
:100AC00009D0606A002540B125616561A56294F88E
:100AD000510040B10CE0012070BD6068B0F5827F2C
:100AE000F4D0E561F2E784F85050204600F040F879
:100AF000022084F851002068016821F04001016063
:100B0000A088218900F4827001F404410843A1897E
:100B100001F400610843217C01F002010843217DBA
:100B200001F001010843218B01F400710843217F8A
:100B300001F03801084394F8201001F080010843C7
:100B4000218D01F40051084321680860A069042147
:100B500001EA1040216848602068C16921F4006101
:100B6000C1616565012084F85100002070BD00005E
:100B700030B585B000240094019402940394006879
:100B80001449884223D11448816941F4805181611C
:100B9000816901F480510491816941F0040181610E
:100BA00080690E4D00F004000490A0200090022007
:100BB00001900320039069462846FFF79DFB4020E3
:100BC000CDE90004694628460294FFF795FB05B07D
:100BD00030BD00000030014000100240000801401C
:100BE00010B5401EB0F1807F01D3012010BD4FF041
:100BF000E02460610F21601700F0D3FA0020A061AB
:100C000007202061002010BDFEE700BF011EA0F1FB
:100C10000100FBD17047000070B52848816941F0A0
:100C20000C0181612648016821F0706141F080610A
:100C30000160016821F4702141F400310160214D0F
:100C40000124C5F890412049C1F88441C1F8804190
:100C50001E490A6822F0F00242F030020A600A6877
:100C600022F00F02D21C0A60C5F894411849C1F85D
:100C70003043016821F4700141F4300101600168E2
:100C800021F0704141F030410160124840F25F3183
:100C90000160016841F0400101600A2005F5C87556
:100CA000FFF718FB002028600A20FFF713FB2C60D9
:100CB000BDE870400A20FFF70DBB000000100240A5
:100CC000000801400000214200802142000C014048
:100CD000000042420030014070B51546094A0E46F8
:100CE00000211C46D162084AC2F8801100F0F2F8D7
:100CF000E00000F009F929463046BDE8704000F0F8
:100D00001FB80000000026420080214270B5154641
:100D1000094A0E4600211C46D162084AC2F88011D9
:100D200000F0D8F8E00000F0EFF829463046BDE8C2
:100D3000704000F02BB800000000264200802142E5
:100D40002DE9F0410C46054613E000BF00F038F9EC
:100D5000074600F035F9064600F032F907F0F801D1
:100D6000090206F0FC0241EAC20141EAD00025F87E
:100D7000020B641EEAD204490120C1F88001BDE8DB
:100D8000F04100F0F5B800000080214270B50C463B
:100D9000054603E000F014F905F8010B641EF9D2D2
:100DA00003490120C1F88001BDE8704000F0E0B8BF
:100DB00000802142064A10B50021D162054CC4F8DA
:100DC000801104F5C07400F085F80120206010BD8A
:100DD000000026420080214237B5084C002115460C
:100DE000E162074AC2F8801100F074F80120E06265
:100DF0000022294601A800F045F83EBD0000264229
:100E00000080214270B5094C0E4600211546E16272
:100E1000074AC2F8801100F05DF80120E062024646
:100E200029463046BDE8704000F02CB8000026424C
:100E30000080214270B51446074A0D460021D16258
:100E4000064AC2F8801100F045F821462846BDE860
:100E50007040012200F02AB80000264200802142A2
:100E6000064A10B50021D162054CC4F8801104F582
:100E7000C07400F0C5F80120206010BD00002642BB
:100E80000080214270B516460D46044604E02088D5
:100E900000F0A4F806B1A41C6D1EF8D2024901208E
:100EA000C1F8800170BD00000080214270B5164677
:100EB0000D46044604E0207800F0A2F806B1641C58
:100EC0006D1EF8D202490120C1F8800170BD0000FA
:100ED00000802142094B00B50021C3F88411084964
:100EE000C8600220FFF791FE064800BFD0F81C1131
:100EF0000029FBD10120C3F8840100BD00802142FC
:100F00000030014000002642F0B5154B0446186839
:100F100020F4700040F4401018600026114D0127A5
:100F200007E000BFC5F894610020FFF76EFEC5F82A
:100F30009471641EF6D2186820F4700040F43000FA
:100F400018600948094900E0C268D1F80021002A68
:100F5000FAD1016821F0380141F483610160F0BDEC
:100F600000080140000021420030014000002642FC
:100F700018B5114B186820F0400018600F4C01E0C4
:100F8000D8680090D4F800010028F9D1186820F43E
:100F9000876040F0180018600120FFF736FE01E07E
:100FA000D8680090D4F800010028F9D1186840F002
:100FB0004000186018BD00000030014000002642CB
:100FC000044800BFD0F800110029FBD00248C068D7
:100FD000C0B270470000264200300140064900B50B
:100FE000C8600120FFF711FE044800BFD0F81C11B3
:100FF0000029FBD100BD0000003001400000264266
:10100000064900B5C8600220FFF7FFFD044800BF95
:10101000D0F81C110029FBD100BD000000300140B8
:10102000000026422DE9F04385B000242C480094AE
:10103000019402940394816941F0100181618169F6
:1010400001F010010491816941F020018161816901
:1010500001F020010491816941F0040181618169FD
:1010600001F004010491816941F008018161806906
:101070001C4F00F008004FF4005504900022294650
:101080003846FFF729FADFF8608000221021404639
:10109000FFF722FADFF85490002203214846FFF7B9
:1010A0001BFA0095032601250396CDE901546946F4
:1010B0003846FFF721F91020CDE900050220CDE9DF
:1010C000024069464046FFF717F9CDE90065CDE9D2
:1010D000024669464846FFF70FF905B0BDE8F083C0
:1010E000001002400010014000080140000C0140C7
:1010F0000F4810B50D4901604FF482714160002125
:101100008160C1604FF400720161C0E905121822CC
:10111000C0E90721416281620A21C162FFF7CEFC6A
:10112000002801D072B6FEE710BD0000003001407B
:10113000E4030020FEE7FEE770477047FFF7D8B9E9
:1011400030B58FB028216846FFF73EF814210AA871
:10115000FFF73AF801210804CDE9001000240294B9
:1011600002250491CDE907504FF4E010099068463C
:10117000FFF714FB08B172B6FEE70F20CDE90A05B0
:101180004FF48060CDE90C4002210AA80E94FFF7CD
:1011900039FA002801D072B6FEE70FB030BD7047B3
:1011A000FEE70907090E002804DB00F1E02080F8C3
:1011B0000014704700F00F0000F1E02080F8141DCB
:1011C00070471020FFF7F6BD1120FFF7F3BD0000B8
:1011D00070B55088918840EA01415089938940EA6E
:1011E0000340091A15184C083620FFF7E3FDC82004
:1011F000FFF736FE2B20FFF7DDFD184EB088A0F27A
:10120000DF104042C0F30720FFF72AFE3079A0F23A
:10121000DF104042C0B2FFF723FE7088A0F2DF105B
:101220004042C0F30720FFF71BFEB078A0F2DF10AA
:101230004042C0B2FFF714FE2C20FFF7BBFD03E0D5
:10124000288800F0EEF9AD1C641EF9D23620FFF7B5
:10125000B1FDBDE870404820FFF702BE000000204D
:10126000F8B51C4615460E46009001232246294635
:10127000304600F01CF8F8BD70B502FB03F4049D85
:1012800000F072F92C20FFF795FD03E0288800F0AC
:10129000C8F9AD1C641EF9D270BD38B514460D46B0
:1012A000009001222146284600F001F838BD70B5B3
:1012B0001E461446049D00F057F92C20FFF77AFDD6
:1012C000744302E0284600F0ACF9641EFAD270BD07
:1012D0004FF4F07070474FF4A070704710B53D4C5C
:1012E0002078C1070AD140F001002070800701D4A6
:1012F000FFF792FC207840F0020020706920FEF792
:10130000E9FF0120FFF756FD0520FEF7E3FF0F225E
:1013100031A1E020FFF78EFD0F2233A1E120FFF77E
:1013200089FD022234A1C020FFF784FD0520FEF7CD
:10133000D1FFC120FFF73EFD4120FFF791FD0520C1
:10134000FEF7C8FF03222DA1C520FFF773FD05207E
:10135000FEF7C0FF3A20FFF72DFD6620FFF780FD66
:10136000B020FFF727FD0020FFF77AFDB120FFF73F
:1013700021FDA020FFF774FDB420FFF71BFD022024
:10138000FFF76EFD02221EA1B620FFF753FDE920F4
:10139000FFF710FD0020FFF763FD042219A1F720DD
:1013A000FFF748FD0520FEF795FF1120FFF702FD2E
:1013B0007820FEF78FFF2920FFF7FCFC0520FEF7C1
:1013C00089FF3620FFF7F6FCBDE810404820FFF704
:1013D00047BD00000000002000030908160A3F78FE
:1013E0004C090A08161A0F00001619030F0532459A
:1013F00046040E0D35370F0017150000001280004F
:1014000002020000A9512C820000000008B5002053
:1014100000900B48007808B9FFF760FF0023032213
:1014200069460420FFF772FC00984000A0F5CD014A
:101430000090543901D0002008BD49F2884008BD11
:1014400000000020F8B505460C462A20FFF7B2FC44
:101450002E0A3046FFF704FDE8B2FFF701FD3046E3
:10146000FFF7FEFCE8B2FFF7FBFC2B20FFF7A2FC26
:10147000250A2846FFF7F4FCE0B2FFF7F1FC284606
:10148000FFF7EEFCE0B2FFF7EBFC01231A466946DA
:101490002E20FFF721FCBDF80000F8BD70B502FB5F
:1014A00003F4049D00F060F822462946BDE8704030
:1014B00001232E20FFF710BC70B5174C05460B46D4
:1014C0006088984202D1E08890420AD06380C3F5D8
:1014D000F070E280801AA0800322A11C3320FFF765
:1014E00091FCA188684290FBF1F201FB120000B26E
:1014F000002802DA6288114400E0618808442188EB
:1015000000B2814207D081B22180BDE87040012243
:101510003720FFF761BC70BD1400002070B5054690
:101520000C462A20FFF746FC2E0A3046FFF798FCAF
:10153000E8B2FFF795FC3046FFF792FCE8B2FFF700
:101540008FFC2B20FFF736FC250A2846FFF788FC86
:10155000E0B2FFF785FC2846FFF782FCE0B2BDE869
:101560007040FFF77DBC00002DE9F04106461548AC
:10157000CD186D1E4180858017460C462A20FFF746
:1015800019FC300AFFF76CFCF0B2FFF769FC3E442F
:10159000761EC6F30720FFF763FCF0B2FFF760FC8E
:1015A0002B20FFF707FC200AFFF75AFCE0B2FFF7F9
:1015B00057FCC5F30720FFF753FCE8B2BDE8F04144
:1015C000FFF74EBC000000202DE9F041054617460C
:1015D0000C462A20FFF7EEFB2E0A3046FFF740FCB0
:1015E000E8B2FFF73DFC3046FFF73AFCE8B2FFF700
:1015F00037FC2B20FFF7DEFB250A2846FFF730FCDF
:10160000E0B2FFF72DFC2846FFF72AFCE0B2FFF717
:1016100027FC2C20FFF7CEFB3846BDE8F041AFF3A6
:10162000008010B50446F82000EA1420FFF718FCEB
:10163000FC2000EAD400FFF713FCE006BDE81040F0
:10164000000EFFF70DBCFEF75BFFFFF779FDFFF71C
:10165000E9FCFFF74DFDFFF741FE0020FEF718FE05
:101660009620FEF737FEF8E70000000000000000BB
:10167000202020200020000050500000000000002A
:101680002850F850F850A000203060301060200042
:1016900020201860101000000038206050780000F2
:1016A000202020000000000010202020202010001A
:1016B000402020202020400020702050000000000A
:1016C000002020F820200000000000001020200052
:1016D000000000700000000000000000002000007A
:1016E000102020204040800020505050502000000A
:1016F0006020202020F800002050202040700000B2
:101700002050102010600000103050781038000079
:101710007040601050200000304060505060000069
:101720007050102020200000205020505020000039
:1017300030505030106000000000200000200000F9
:101740000000100010200000001020C02010000039
:1017500000700070000000000040201820400000D1
:1017600020501020002000003048485848403800E1
:101770006020507088D80000F048704848F00000A1
:101780007050404040300000F048484848F00000A9
:10179000F848604048F80000F848604040E0000029
:1017A0007040405850300000E848784848E8000051
:1017B00070202020207000003810105050200000B1
:1017C000D850607050D80000E040404048F8000019
:1017D000D8D8D8A888D80000D868685858E8000039
:1017E0003048484848300000F048487040E0000069
:1017F0003048484848301800F048487048E8000031
:101800007050201050700000F8A8202020700000B8
:10181000D848484848300000D88848505030000028
:10182000D888A8A8A8500000D850202050D8000080
:10183000D888502020700000784810204878000098
:101840003020202020203000804040202020100028
:101850006020202020206000202050000000000098
:1018600000000000000000F8201000000000000050
:101870000000301070780000C040704848F0000050
:1018800000007040407000001808384848380000D8
:1018900000007070403000001020702020700000A8
:1018A0000000384848380830C040704848E8000018
:1018B00020006020207000002000701010101070B8
:1018C000C040587050D800006020202020700000D8
:1018D0000000D0A8A8A800000000F04848C80000F8
:1018E00000003048483000000000F048487040E0F8
:1018F00000003848483808180000782020700000A0
:1019000000003020106000000040F040483000002F
:101910000000D848483800000000C84830300000B7
:101920000000D8A8A850000000004830304800004F
:101930000000D85050202060000078502878000027
:1019400010202060202010002020202020202000B7
:1019500040202030202040000000002850000000DF
:10196000000000000000000001020304060708094F
:1019700090190008000000207000000028010008F5
:10198000001A000870000020300A0000440100081E
:1019900000000000000000001C0000206816000885
:1019A000050008000000000000000000DD12000833
:1019B0000D140008C9110008C31100081D15000806
:1019C000C9150008451400086915000861120008CF
:1019D0009B120008D7120008D1120008D11100088C
:1019E00079120008AF1200089D140008B91400080D
:1019F0000100000010000000000000000024F400BE
:04000005080000ED02
:00000001FF
